:020000021000EC
:1000B4004111814522C406C62A84EF00007D83A72E
:1000C40081D491C382972285EF20A01C930700005E
:1000D40091C749651305E5A06F0010088280974118
:1000E40000009381E1B9138581D413860107098E39
:1000F40081457125171500001305458619C5172577
:1001040000001305C590EF003005292502454C0079
:100114000146B12071BF411122C483C741D606C62E
:1001240091EF9307000081CB4965130505479700BC
:100134000000E700000085472382F1D6B240224444
:10014400410182809307000091CB4965938581D654
:100154001305054717030000670000008280411162
:1001640006C622C40008C9671385C745BD26814752
:100174003E85B240224441018280014582804D6621
:10018400C5654D65130606489385E52113050549A4
:10019400A9AC4C41411122C406C6938701D82A84D4
:1001A4006384F500EF1060070C44938781DE638558
:1001B400F5002285EF1060064C44938701E56388BF
:1001C400F50022852244B24041016F100005B2407F
:1001D40022444101828001458280011122CCC16701
:1001E400138401D806CE26CA4AC84EC652C4114743
:1001F40093872718214681451385C1DD23A4F1D4B3
:1002040058C42320040023220400232404002322AE
:10021400040623280400232A0400232C0400852335
:10022400C167416AC1694169C164130A6A4E93890D
:100234000952130909579384C45AA50721468145D5
:10024400138541E47CD8232044032322340323244C
:10025400240344D440CC2324040623260406232860
:1002640004062326040C232C0406232E0406232030
:1002740004083123B7070200C907138781DE1385F9
:10028400C1EA21468145232444092326340923282D
:100294002409232A9408232EF40C2328040C232A4B
:1002A400040C232C040C232A04122320040E2322DE
:1002B400040E2324040E2322E408D121938701E5AC
:1002C4002328440F232A340F232C240F232E940E87
:1002D400F2402326F40E6244D2444249B249224AEF
:1002E4000561828083A781D401114EC606CE22CC3B
:1002F40026CA4AC8AA89CDC74D6913090948FD54BD
:100304008327490003248900FD1763D70700B9A890
:1003140013048406638C97040317C400FD176DFB54
:10032400C177850723220406232004002324040024
:100334002322040023280400232A0400232C04007D
:100344005CC4214681451305C405152923280402EC
:10035400232A04022322040423240404F2402285D1
:100364006244D2444249B2490561828003240900AF
:1003740019C0228971B79305C01A4E85EF00F00C9D
:100384002A840DC191473105232004005CC008C4B0
:100394001306001A8145E5262320890022898DB79A
:1003A4002D3D99BF23200900B14723A0F9007DB753
:1003B4005C5991C38280C16703A781D4938767196D
:1003C4005CD96DFB19BD828082804D66C1651306C0
:1003D40006489385E517014509A84D66C1651306CE
:1003E40006489385A51D014509A079714AD04ECED2
:1003F40052CC56CA5AC85EC606D622D426D22A8BF6
:10040400AE8BB28A014A85497D5983A44A0003A46C
:100414008A00FD1463C404028357C40063FBF9001B
:100424008317E400A2855A8563852701829B336A7A
:10043400AA00FD1413048406E39024FF83AA0A008F
:10044400E3950AFCB250225492540259F249D24A1A
:10045400424BB24B5285624A45618280397122DC3B
:100464002A842E8526DA06DEAE84752EC96758588E
:100474008545130815009387C746101089462ED664
:1004840026D02AD242CE3ED432CA36CC0C4429C31A
:100494008397C500F85109669396270163C4060241
:1004A400F976FD16D18F758F2396F500F8D1228544
:1004B4005008EF10400319E92945F2506254D25410
:1004C4002161828093172701E3D307FE7D55F5B799
:1004D40022852EC6F13DB24565BFAA8503A5C1D3C9
:1004E400B5BF411122C42E848395E50006C67D2242
:1004F400634905003C48B240AA973CC822444101E4
:1005040082808357C4007D777D17F98FB24023160C
:10051400F400224441018280014582808397C50012
:10052400011122CC26CA4AC84EC606CE13F70710BC
:100534002E843289B689AA8415E37D777D17F98FD5
:100544008315E4002316F4006244F240CE864A8602
:10055400B24942492685D2440561BDAA8395E50086
:1005640089460146F5288317C400C1BF411122C43E
:100574002E848395E50006C6E5207D578317C400C5
:10058400630BE5000567D98FB24028C82316F40031
:100594002244410182807D777D17F98FB240231672
:1005A400F4002244410182808395E50009A04111B1
:1005B40022C426C22A842E8506C623A601D4EF109F
:1005C400B04AFD576307F500B2402244924441010A
:1005D400828083A7C1D4EDDBB2401CC02244924484
:1005E4004101828083A7C1D3638BA7066C410111AB
:1005F40026CA06CE22CCAA849DC54AC84EC6014945
:1006040093090008B3872501804319C4A2850040DB
:100614002685312965FCEC401109E31539FF26854F
:1006240039214249B2498C5C99C126850921A040EF
:1006340011C4A28500402685DD2E65FCEC4499C1D9
:100644002685F526DC5899C76244F2402685D244B3
:1006540005618287F2406244D244056182808280CF
:1006640041112E8722C426C2B2852A8436863A8551
:1006740006C623A601D4EF107049FD576307F500A1
:10068400B240224492444101828083A7C1D4EDDB6D
:10069400B2401CC0224492444101828041112E8701
:1006A40022C426C2B2852A8436863A8506C623A683
:1006B40001D4EF105048FD576307F500B2402244BF
:1006C40092444101828083A7C1D4EDDBB2401CC0B7
:1006D400224492444101828041112E8722C426C2C1
:1006E400B2852A8436863A8506C623A601D4EF103D
:1006F400504CFD576307F500B24022449244410137
:10070400828083A7C1D4EDDBB2401CC02244924452
:1007140041018280411122C4CD674D644AC0938750
:1007240047471307444706C626C23389E740638D0B
:10073400E700135929401304444781441C408504AD
:1007440011048297E3EC24FFCD674D649387C74778
:10075400130744473389E74013592940638BE70063
:100764001304444781441C40850411048297E3EC3C
:1007740024FFB240224492440249410182803D4315
:100784002A876373C3029377F700BDEFADE59376D1
:1007940006FF3D8ABA960CC34CC30CC74CC741072D
:1007A400E36BD7FE11E28280B306C3408A06970248
:1007B400000096966780A6002307B700A306B7003B
:1007C4002306B700A305B7002305B700A304B700A9
:1007D4002304B700A303B7002303B700A302B700A1
:1007E4002302B700A301B7002301B700A300B70099
:1007F4002300B700828093F5F50F93968500D58D7D
:1008040093960501D58D61B7939627009702000052
:1008140096968682E78086FA9680C1171D8F3E964B
:10082400E374C3F8A5B7937735002A879DEFB7869D
:100834007F7F9386F6F7FD5510431107B377D600F3
:10084400B697D18FD58FE389B7FE8346C7FFB30729
:10085400A7408DCA8346D7FF9DC20345E7FF3335C2
:10086400A0003E9579158280F9D2834707000507D9
:1008740093763700F5FB098F1305F7FF8280138504
:10088400D7FF82801385C7FF8280797152CC4AD00A
:1008940003A901D506D6630609044ECE56CA5AC822
:1008A4005EC622D426D262C42A8BAE8BFD59854AF9
:1008B400832449001384F4FF634E04008A04CA9419
:1008C40063860B0283A74410638277037D14F114BB
:1008D400E31A34FF22549254F249D24A424BB24BA7
:1008E400224CB2500259624A4561828083274900F2
:1008F400D440FD17638C870423A2040095C2832788
:10090400891833978A00032C4900F98F99EF82964E
:100914000327490083A701D563178703639527033A
:100924007D14F114E31E34F975B78327C91883A520
:1009340044087D8F19EF5A8582960327490083A7BF
:1009440001D5E30D87FDD9D73E899DB723228900C0
:1009540075B72E8582966DBFAA85814601460145ED
:100964006F10602A01114EC6CD6922CC26CA4AC82E
:1009740052C406CE2E8A2A899389095BEF00B009F6
:1009840083A7890005643D14C4438567F1982694C0
:100994003304444131807D143204634BF4008145B7
:1009A4004A85EF10200383A78900A697630EF500FC
:1009B4004A85EF007006F2406244D2444249B2498B
:1009C400224A014505618280B30580404A85EF10C3
:1009D4006000FD576309F502938781EB83A68900C4
:1009E4009843818C93E414004A85018FC4C298C350
:1009F400EF009002F2406244D2444249B249224A92
:100A040005450561828081454A85EF00B07C03A7D6
:100A14008900BD46B307E540E3DCF6F803A601D43C
:100A240093E71700118D5CC323ACA1EA51B7F9CD4C
:100A3400411122C426C22E84AA8406C6EF00A07DDA
:100A44000325C4FF130784FFCD659377E5FF3306C1
:100A5400F7009385055B544203A88500937815003D
:100A6400F19A6300C81254C23308D6000328480020
:100A74001378180063970806032384FF4D65130554
:100A8400855B33076740832887009A97638EA80C99
:100A94000323C70023A6680023241301630B081053
:100AA40093E6170054C31CC29306F01F63EAF606CC
:100AB40093F687FFA106C841AE96904213D857001B
:100AC4008547B3970701C98F138586FF10C748C7A9
:100AD400DCC198C258C62244B240268592444101E2
:100AE40025AF631608024D65B6971305855B14465A
:100AF40093E817003308F7006389A60E5046D0C662
:100B040014C6232217012320F80079BF82801365BD
:100B14001500232EA4FE1CC29306F01FE3FAF6F878
:100B240093D6970011466368D60893D66700138559
:100B340096030E05138686032E95144161156316DC
:100B4400D5006DA894466306D500D042719AE3EBB4
:100B5400C7FEC84648C714C7224418C5B2402685F4
:100B64009244D8C641014DAD631608064C46104662
:100B7400BE9693E716004CC690C55CC3369714C363
:100B840099BFBE96639A0800032584FF098F5C47CA
:100B94001047AA965CC690C713E6160083A741D4F3
:100BA40050C398C5E3E9F6F283A5C1D526855D3B1C
:100BB4001DB7B6972DBF51466373D6021306400581
:100BC4006368D60493D6C7001385F6060E0513860C
:100BD400E6069DB793E6170054C31CC2EDBD13850A
:100BE400C6050E051386B60581BFD8C998C948C77E
:100BF40008C7232217012320F800F1BD03A84500EC
:100C040009868547B397C700B3E70701DCC199B7E5
:100C140013064015636AD60093D6F700138586073A
:100C24000E051386760709BF13064055636AD6007E
:100C340093D627011385D6070E051386C607EDBD87
:100C44001305803F1306E007C5BD79714ECE06D665
:100C540022D426D24AD09387B5005947AA8963671C
:100C6400F704C14463E7B4167D23E14789454D6920
:100C74001309095BCA97C043138787FF6306E430EF
:100C84005C4054441044F19BA297D84354C690C688
:100C9400136717004E85D8C34123B250130584004F
:100CA400225492540259F2494561828093F487FF99
:100CB40063C1071263EFB410B92B9307701F63F479
:100CC400973893D794006381071211476363F73011
:100CD40093D764009385970313888703139635008D
:100CE4004D691309095B4A96404261166301860205
:100CF4003D4539A0544463560726630AD60036841A
:100D04005C40F19B33879740E356E5FEC28503249C
:100D140009014D681308885B630B041F5C40BD46E2
:100D2400F19B3387974063C5E632232A09012328C0
:100D34000901635007301307F01F03254900636A54
:100D4400F72413F787FF21074A97144313D6570054
:100D54008547B397C7005D8D930787FF14C45CC4B0
:100D64002322A90000C3C0C693D7254005463316E5
:100D7400F6006362C508B377A60081EF0606F19911
:100D8400B377A600910591E70606B377A60091050F
:100D9400E5DFBD48139335004A931A855C452E8ED2
:100DA4006309F524D8433E84DC47719BB30697401E
:100DB40063C8D824E3C606FE2297544310444E85E4
:100DC40093E6160054C35CC690C7B921130584008A
:100DD40029A0B14723A0F9000145B25022549254EE
:100DE4000259F249456182801306002093050004EC
:100DF4001308F003F5B5032489005AC85C4013FBBB
:100E0400C7FF63679B0033079B40BD4763C6E71278
:100E140066C256CA03A701D483AAC1D552CC5EC602
:100E2400FD57A69A330A64016302F72C8567BD0750
:100E3400BE9AFD77B3FAFA00D6854E85EF00903955
:100E4400FD57AA8B630BF53262C46365450D138CA1
:100E540081EB83250C00D6952320BC002E876302EA
:100E6400AA3283A601D4FD57638AF632B3874B4175
:100E7400BA972320FC0093FC7B0063830C28B38B7C
:100E84009B418565A10BA105DE9AB3859541B38588
:100E94005541D20513DA4501D2854E85EF009033D2
:100EA400FD576309F53233057541B30A450103273C
:100EB4000C002324790193E71A00B305EA0023A266
:100EC400FB002320BC0063052403BD4663FA6625AA
:100ED400584093074BFFE19B058B5D8F58C0154627
:100EE4003307F40050C310C763E8F61E83A74B0012
:100EF40083A681D563F4B60023ACB1D483A641D5CF
:100F040063F4B60023AAB1D4224C5E8411A803254D
:100F1400490099BD630B242503248900224C5C40BD
:100F2400F19B3387974063E19720BD4763DEE71E5B
:100F3400624AD24AB24B924C93E714005CC0A2942A
:100F440023249900136717004E85D8C0F124B250AA
:100F5400130584002254424B92540259F2494561CC
:100F640082801044A297D84354C690C613671700D2
:100F74004E85D8C35524B25013058400225492548C
:100F84000259F24945618280C0478905E38187D8C7
:100F9400C5B913D79700914663F2E60ED14663EDC7
:100FA400E6181306C7050E069306B7054A961842B7
:100FB40061166316E6002DAA18476306E60054433B
:100FC400F19AE3EBD7FE504750C418C400C640C79B
:100FD40061BB5147637CF70A13074005636AF71640
:100FE40093D7C4009385F7061388E7061396350054
:100FF400C5B9050E93773E002105CDC75C454DB3B9
:10100400104493E514004CC05CC690C7A294232AF4
:1010140099002328990093E71600229723A6040138
:1010240023A40401DCC04E8514C3FD2213058400EF
:101034006DB3A297D8434E8513671700D8C3E92A26
:101044001305840059BB93D534009387840005B1FC
:1010540093E6140054C0A294232A990023289900EB
:1010640093661700A29723A6040123A40401D4C005
:101074004E8598C355221305840085B313D76700A2
:10108400130697030E06930687030DB79385C705CA
:101094001388B70513963500A1B183278300FD1586
:1010A4006398671693F735006113E5FB032749003E
:1010B4009347F6FFF98F2322F9000606E3EDC7D222
:1010C400E30B06D23377F60011E706063377F60012
:1010D400110E65DFF2857DB9930584004E85EFF02E
:1010E4001F9583250C00832B890009B5C10AA9B378
:1010F40089868547B397D7005D8D2322A900E9B57A
:10110400B3855B01B305B040D20513DA4501D2853E
:101114004E85EF00300CFD57E317F5D8014A41BB6B
:10112400224C854723A2FB004E85FD20624AD24A09
:10113400424BB24B924C4DB19306400563E3E60635
:1011440013D7C7001306F7060E069306E706B9BDC4
:10115400130740156363F70693D7F4009385870755
:101164001388770713963500A5BE138C81EB0327EC
:101174000C0056972320EC00EDB1032489005C4059
:1011840045B393174501E39E07CC832B8900B3072E
:101194005B0193E7170023A2FB0099BB23A071D541
:1011A400D9B99306401563EDE60213D7F700130689
:1011B40087070E0693067707D5BB13074055636D63
:1011C400F70293D724019385D7071388C70713968B
:1011D400350039B6E11CE69AB38A7A41014AC1B9AD
:1011E4009306405563E1E60213D727011306D70798
:1011F4000E069306C7075DBB1306803F9305F007F1
:101204001308E007F1BC1306803F9306E00779BB9F
:10121400832749005DB582808280411106C64AC099
:1012240089CD22C426C22E84AA8419C15C59D1C78F
:101234008317C40089EB22449244B24001494A8591
:10124400024941018280A2852685BD285C542A89F1
:1012540091C74C4C26858297634605048357C40086
:1012640093F70708B1E70C5891C993070404638501
:10127400F5002685EFF0AFFB232804026C4091C5EE
:101284002685EFF0CFFA23220404EFF0CF93231640
:101294000400EFF06F93B240224492444A8502491D
:1012A400410182808357C4007D5993F70708C5DF45
:1012B4000C482685EFF0AFF77DB7EFF06F8F8DBF49
:1012C400AA8503A5C1D391BF0397C500011122CC00
:1012D4004EC606CE937787002E84AA89E1E78567F8
:1012E40093870780D441D98F2396F5006359D01092
:1012F400032884026302080A26CA9316370183A4CA
:10130400090023A0090063C306104C4C014685461E
:101314004E850298FD572A866301F5128317C4008F
:1013240003288402918B99C758401C58198E99C37D
:101334005C5C1D8E4C4C81464E8502987D5783170C
:10134400C4006317E50C83A6090075476363D710CF
:101354003707402005073357D700058B7DCB10484E
:101364007D771307F77F7D8F2316E4002322040083
:1013740010C01397370163530700CDCA0C5823A03C
:101384009900D5C9930704046385F5004E85EFF0F1
:101394000FEAD24423280402F2406244B2490145D0
:1013A400056182804AC803A90501630F090426CA9E
:1013B40084410D8B23A02501B3842441814711E38B
:1013C400DC491CC4634690003DA82A99635D9002E1
:1013D4005C504C4CA6864A864E858297898CE3469F
:1013E400A0FE8317C400424993E70704F240231682
:1013F400F4006244D244B2497D5505618280D45DD3
:10140400E348D0EE51BFD244424979B7304819BFBE
:1014140014487D771307F77F7D8F2316E40023227A
:10142400040014C013973701E35A07F40C5828C872
:1014340023A09900A1F9D24485B783A70900E38FBB
:1014440007EC7547638AE70059476387E70083170A
:10145400C40093E7070459BF23A09900D2442DBFC9
:10146400011122CC06CE2A8419C15C5991CF8397ED
:10147400C50091E7F24062440145056182802285FE
:101484006244F240056189B52EC6EFE07FF2B245B1
:10149400F9BF05CDAA8503A5C1D319C15C5999C764
:1014A4008397C50099E30145828039BD01112EC699
:1014B4002AC406CEEFE0DFEFB24522458397C5008C
:1014C40085E3F2400145056182804D66C5654D6541
:1014D4001306064893854546130505496FE0FFF05A
:1014E400F2400561D5B31C46638A07180397C5000B
:1014F400797122D452CC56CA06D693778700328AA1
:10150400AA8A2E84B5C79C49A5C726D24AD04ECEF6
:101514005AC89377270083240A00BDCB370B008079
:10152400130B0BC0814901494E8656856302091489
:10153400B7070080CA8663742B01938607C05C508A
:101544004C4C82976354A02C83278A00AA993309B0
:10155400A940898F2324FA00E1FB92540259F249ED
:10156400424B0145B2502254624AD24A45618280BC
:10157400A2855685452C631F051A0317C40026D27D
:101584004AD04ECE5AC89377270083240A00D9F74D
:101594005EC662C493771700E5E7B70B008066C2A6
:1015A400FD1B014B0149630F090A9377072008408B
:1015B400032C840063820718E28C636C891F937781
:1015C4000748A5CB54480C4893971600B69793D96F
:1015D400F701330CB540BE9993071C0093D9194009
:1015E400CA974E8663F4F900BE893E861377074096
:1015F4006306071EB2855685EFF02FE5AA8C630AB1
:1016040005200C486286112B8357C40093F7F7B763
:1016140093E707082316F40033858C01338C894142
:10162400232894012324840108C0232A34014A8CEA
:10163400CA8CDA85668621211C401844CA89E6973B
:101644001CC083278A003307874118C4B3873741F6
:101654002324FA0001494E9B638007120317C40038
:10166400E31509F403AB040003A94400A10425BF56
:1016740083A9040003A94400A1047DB50145828027
:10168400014B0145014C8149638E090425C5DA8764
:10169400CE8B63F33701BE8B08401C48544863F774
:1016A400A7000329840036996340790763CCDB10D3
:1016B4005C504C4C6286568582972A896350A006FA
:1016C400330B2B41054563090B0E83278A004A9C83
:1016D400B3892941B38727412324FA00D5F7B24BB4
:1016E400224CA5BD83A94400A687A104E38C09FE6E
:1016F40003AC07004E86A94562859924630405104E
:101704000505330B854161B7E2854A860D2E1C40E1
:10171400A2855685CA971CC0A1335DD18317C40026
:10172400B24B224C92540259F249424B93E70704BC
:101734002316F4007D553DB51C4863E3A7045C48BB
:101744006360F904CA8663F32B01DE86B3E7F6020D
:1017540058504C4C5A8656859D8E0297AA896354DC
:10176400A00483278A00330939414E9BB38737414C
:101774002324FA00E39407EEB24B224C924CF1BBC3
:10178400E28963738901CA894E86DA854D2C184033
:101794001C444E97B387374118C01CC4F9F3A28583
:1017A40056857D395DDD8317C400B24B224C924CC3
:1017B40095BF4A8CCA8CB5BDA28556855531E306C2
:1017C40005F0A9BF5E86E2859D2C18441C405E8905
:1017D40033077741DE9718C41CC0DDB556855129FF
:1017E400AA8CE31B05E20C485685EFF04FA483173F
:1017F400C4003147B24B224C924C23A0EA0093F729
:10180400F7F70DB7938719003E8B59B58317C400BA
:1018140011BFB14723A0FA00B24B8317C400224C76
:10182400924C09B783A7C1D3411122C426C206C66C
:10183400AA842E8499C3D85B61CB8317C40013F7A1
:10184400870015C3184805CF13F717002DC35C484C
:1018540023240400B307F0401CCC0145B2402244C9
:1018640092444101828013F7070179C313F74700BB
:1018740021E7184893E787002316F40071F793F6DD
:101884000728130600206390C60693F61700C9C202
:101894005848232404003307E04018CC13F7070802
:1018A4004DDF93E707042316F4007D5545BF898B6C
:1018B40085EB5C481CC455B70C5881CD1307040450
:1018C4006387E5002685EFF08F968317C4002328ED
:1018D4000402184893F7B7FD2322040018C059BF27
:1018E400232404009DBF2685A285492F8317C400A5
:1018F400184893F6170085C6544823240400B306F9
:10190400D04014CC41DF91BF3E85EFE07FAA35B7CC
:1019140093F6270099EA504810C449D33DBF93F683
:1019240027000146F5FA5048C5BF23240400BDB77B
:10193400254793E7070498C02316F4007D5539BF63
:1019440013773500AA8713F8F50F2A830DC7B30858
:10195400C50039A083C60700638C060711CBAA878C
:101964001385170013773500E39617FF014582802E
:101974007D161A961D8E8D4763F1C70493F5F50FF6
:1019840093968500AE96139706013703FFFEB7883A
:101994008080BE85BA961303F3EF938808081C4130
:1019A400B58F3387670093C7F7FFF98FB3F7170134
:1019B40091E771161105E3E4C5FE4DDA2A9621A0DC
:1019C4000505E305C5FA83470500E39B07FF82800D
:1019D4003E858280411122C426C22A842E8506C6F1
:1019E40023A601D4EF00D017FD576307F500B240DA
:1019F400224492444101828083A7C1D4EDDBB240EA
:101A04001CC02244924441018280411122C4CD670A
:101A14004D64130404489387C7471D8C26C206C629
:101A24009354244081C871143E941C40FD147114D5
:101A34008297E5FCB240224492444101828063F2E1
:101A4400A5023387C500637EE500B307C5001DCA40
:101A54008346F7FFFD177D172380D700E31AF5FEB1
:101A64008280BD4763E1C702AA879306F6FF5DC281
:101A74008506BE9603C7050085078505A38FE7FE87
:101A8400E39AD7FE8280B367B5008D8BAE88BDEF35
:101A9400930706FF13F807FF41082A982A87944101
:101AA400C10541072328D7FE83A645FF232AD7FE75
:101AB40083A685FF232CD7FE83A6C5FF232ED7FE3E
:101AC400E31F07FDC19B3387170193050701AA97FD
:101AD4001378C600C1072E8E9376F600630D0802B4
:101AE400F116F19A369751073308154103A30500FF
:101AF400B3880501910523A06800E399E5FE1387E7
:101B04004600B305C701BA970D8A85B79306F6FF59
:101B1400AA87B9BF8280368689BFB3C7A5008D8BDB
:101B2400B308C500B1E78D4763F4C7049377350064
:101B34002A87DDE713F6C8FFB306E64093070002E1
:101B440063C4D704AE86BA876371C70203A80600CC
:101B54009107910623AE07FFE3EAC7FE7D16198EAF
:101B6400719A91051107B2953297636617018280C5
:101B74002A87E37E15FF83C7050005078505A30FA4
:101B8400F7FEE39AE8FE8280945183A3050083A2C2
:101B9400450083AF850003AFC50083AE050103AEE6
:101BA400450103A3850103A8C50113074702232E9A
:101BB400D7FE232E77FCB306E640232057FE2322CC
:101BC400F7FF2324E7FF2326D7FF2328C7FF232A71
:101BD40067FE232C07FF93854502E3C7D7FA9DB719
:101BE40083C60500050793773700A30FD7FE850545
:101BF400B1D383C60500050793773700A30FD7FE3B
:101C04008505F9FF05BF83A701D5A1C3D8437D4846
:101C1400634FE804131827001DC1338307012324ED
:101C2400C30883A8871805463316E600B3E8C8003E
:101C340023A417192324D3108946630FD50005075D
:101C4400D8C3C2978CC701458280138801EE23A8AC
:101C540001D5938701EE5DBF83A6C7180507D8C3D6
:101C6400D18E23A6D718C2978CC7014582807D5593
:101C74008280797126D206D6B284638D051422D46B
:101C84004AD02E844ECE56CA52CC2A89EFF0AFD811
:101C94000327C4FF9387B400D9469379C7FF930AF7
:101CA40084FF63FFF60A13FA87FF63CE070A636CA7
:101CB4009A0A63D5490DCD6762C4138C075B03266A
:101CC4008C00B3863A01DC42630ED61213F6E7FFAA
:101CD40036965042058A7DE2F19B3386F9006359BA
:101CE4004609058B0DE75EC6832B84FF5AC8B38B68
:101CF4007A4103A74B00719BBA97338B3701635624
:101D04004B23338BE90063544B1D424BB24BA685E6
:101D14004A85EFE09FF3AA846304052C8327C4FF5C
:101D2400130785FFF99BD697638DE7181386C9FFC0
:101D34009307400263E8C71E4D476368C716AA8726
:101D44002287144394C35443D4C3184798C7A28525
:101D54004A85EFE0DFCD4A85EFF00FCC224CA9A0F5
:101D6400414AE3789AF4B1472320F90081442DA82D
:101D7400DC469846224CB2895CC798C783A74A00C0
:101D8400B38649413D46858B33873A01636AD6045D
:101D9400B3E7370123A2FA005C4393E717005CC35F
:101DA4004A85EFF06FC7A2842254B2500259F24917
:101DB400624AD24A2685925445618280058B21FB72
:101DC4005EC6832B84FF5AC8B38B7A4103A74B00AA
:101DD400719B05BFB2509254B28545616FE0FFE636
:101DE400B3E7470123A2FA00B3854A0193E616003C
:101DF400D4C15C43A1054A8593E717005CC3EFE0B7
:101E04001FC379BFF19BB386370113060A0163D759
:101E1400C618058BE31D07EE5EC6832B84FF5AC8E4
:101E2400B38B7A4103A74B00719BBA97338B37016D
:101E3400E349CBEC83A7CB0003A78B001386C9FF30
:101E4400930640025CC798C793848B0063E7C61C63
:101E54004D47A687637EC7001840ED4723A4EB00D7
:101E6400584023A6EB0063EAC71C210493870B01A7
:101E7400184098C35840D8C3184498C7B3874B0137
:101E840033074B412324FC0013671700D8C383A7EF
:101E94004B004A85858BB3E7470123A2FB00EFF093
:101EA400AFB7424BB24B224C01B714406D4714C13B
:101EB400544054C16369C70C130784009307850019
:101EC40049B58327C5FF224CF19BBE9945BD83A725
:101ED400CB0083A68B001386C9FF93054002DCC6A2
:101EE40094C793848B0063EBC508CD46A68763FE35
:101EF400C6001840ED4723A4EB00584023A6EB008E
:101F040063E4C70C210493870B01144094C3544029
:101F1400D4C3144494C7DA89DE8A424BB24B224CB0
:101F24002684A9BDA285213E1DB5DC4698461386AC
:101F3400C9FF930640025CC798C703A78B0083A719
:101F4400CB0093848B005CC798C763E9C6024D47F6
:101F5400A687637EC7001840ED4723A4EB005840D2
:101F640023A6EB0063EDC708210493870B011840F7
:101F740098C35840D8C3184498C771BFA285268512
:101F8400EFF0FFAB49BF184418C5584458C5630F58
:101F9400F604130704019307050165B3D29AB386C7
:101FA400464123245C0193E7160023A2FA00832709
:101FB400C4FF4A85A284858BB3E74701232EF4FE30
:101FC400EFF08FA5224CCDB31C4423A8FB005C4446
:101FD40023AAFB006308B604410493878B0135B739
:101FE4004A85EFF06FA38144224C7DBB144813074C
:101FF40084019307850114C9544854C999B31844FA
:102004009307400223A8EB00584423AAEB00630281
:10201400F604410493878B0199BFA2852685EFF0CE
:102024001FA2A9BD184893870B02610423ACEB00DF
:102034000327C4FF23AEEB00C9BD1C4423A8FB0047
:102044005C4423AAFB006301D602410493878B01FD
:1020540005B5184893870B02610423ACEB000327F2
:10206400C4FF23AEEB0021B7184893870B0223ACBF
:10207400EB005848610423AEEB00DDBB8397C50039
:102084005971A2D486D613F727002E8419CB9387CF
:10209400350405479CC19CC9D8C9B650265465610E
:1020A40082808395E500CAD0A6D22A8963CD05042F
:1020B4003000A92263470504930500404A85B244D1
:1020C400EFE0BFB88317C4003DCD3D6793E7070831
:1020D40093060040F98C2316F40008C008C854C8BD
:1020E40009676396E4088315E4004A85A12205671D
:1020F4008317C4001307078015CDF19B93E71700DE
:1021040015A88317C40093F4070893B41400B30408
:10211400904093F4043C938404044A85A685EFE03C
:10212400DFB28317C40005C193E7070808C008C8D5
:1021340044C80147D98FB6502316F4002654965448
:1021440006596561828013F7072019EFF19B130785
:10215400340493E727008546965406592316F40061
:1021640018C018C854C815BF965406593DB705671A
:1021740013070780C1B75971A2D42E848395E50053
:10218400A6D2CAD086D6B284368963CB0502300083
:10219400B52063470502B247BD667977F58FBA97D4
:1021A400B650265493B717002320F90013070040B4
:1021B40098C00565965406591305058065618280AB
:1021C4008357C40093F7070891CFB650265481472C
:1021D4002320F9001307000498C0065996540145BA
:1021E40065618280B65026542320F900130700400D
:1021F40098C00659965401456561828041112E8725
:1022040022C426C2B2852A843A8506C623A601D4EE
:102214004D20FD576307F500B2402244924441012A
:10222400828083A7C1D4EDDBB2401CC02244924417
:1022340041018280411122C426C22A842E8506C609
:1022440023A601D45D20FD576307F500B240224464
:1022540092444101828083A7C1D4EDDBB2401CC00B
:102264002244924441018280411106C622C493084B
:102274009003730000002A8463470500B24022855E
:1022840022444101828033048040E12200C17D5414
:10229400F5B79308D005730000006343050001A05F
:1022A400411122C42A8406C6330480405D2200C141
:1022B40001A0757126C306C7AE8422C58A8593081A
:1022C4000005730000002A84634B050026858A8577
:1022D4003122BA4022852A449A44496182803304D7
:1022E4008040852A00C17D54D5B759712C0086D60B
:1022F400C937FD576308F5003245B6503581058965
:1023040065618280B650014565618280411106C6CF
:1023140022C49308E003730000002A846347050085
:10232400B240228522444101828033048040152238
:1023340000C17D54F5B7411106C622C49308F003C9
:10234400730000002A8463470500B24022852244BA
:102354004101828033048040ED2800C17D54F5B7EB
:1023640003A701D6411106C6AA8701EF9308600DA1
:102374000145730000007D562A876305C50223A02A
:10238400A1D63385E7009308600D7300000003A70E
:1023940001D6BA976318F500B24023A0A1D63A85B6
:1023A400410182807D20B240B1471CC17D5541016D
:1023B4008280411106C622C4930800047300000001
:1023C4002A8463470500B240228522444101828069
:1023D40033048040BD2800C17D54F5B741119C41B0
:1023E40083A3450183A2850183AFC50103AF050221
:1023F40083AE050303AE050403A3850303A8850484
:1024040083A8C504B04D22C626C480498445F44D32
:10241400B8552310F500FC552311950040C1231431
:102424007500231555002316F5012317E50123280C
:10243400D5012326C50523246504232C0501232E59
:10244400150110D554D5324418DD5CDDA244410198
:08245400828003A5C1D3828040
:10245C0048656C6C6F2C20524953432D562100005B
:02246C000A0064
:042470000000000068
:08347400D00001004801010035
:04347C001A01010030
:103480000000000003000000003A010000000000FE
:1034900000000000003A0100683A0100D03A010043
:1034A000000000000000000000000000000000001C
:1034B000000000000000000000000000000000000C
:1034C00000000000000000000000000000000000FC
:1034D00000000000000000000000000000000000EC
:1034E00000000000000000000000000000000000DC
:1034F00000000000000000000000000000000000CC
:1035000000000000000000000000000000000000BB
:1035100000000000000000000000000000000000AB
:10352000000000000000000001000000000000009A
:103530000E33CDAB34126DE6ECDE05000B0000005F
:10354000000000000000000000000000000000007B
:10355000000000000000000000000000000000006B
:10356000000000000000000000000000000000005B
:10357000000000000000000000000000000000004B
:10358000000000000000000000000000000000003B
:10359000000000000000000000000000000000002B
:1035A000000000000000000000000000000000001B
:1035B0000000000000000000B0350100B03501003F
:1035C000B8350100B8350100C0350100C035010033
:1035D000C8350100C8350100D0350100D0350100E3
:1035E000D8350100D8350100E0350100E035010093
:1035F000E8350100E8350100F0350100F035010043
:10360000F8350100F83501000036010000360100F0
:10361000083601000836010010360100103601009E
:10362000183601001836010020360100203601004E
:1036300028360100283601003036010030360100FE
:1036400038360100383601004036010040360100AE
:10365000483601004836010050360100503601005E
:10366000583601005836010060360100603601000E
:1036700068360100683601007036010070360100BE
:10368000783601007836010080360100803601006E
:10369000883601008836010090360100903601001E
:1036A0009836010098360100A0360100A0360100CE
:1036B000A8360100A8360100B0360100B03601007E
:1036C000B8360100B8360100C0360100C03601002E
:1036D000C8360100C8360100D0360100D0360100DE
:1036E000D8360100D8360100E0360100E03601008E
:1036F000E8360100E8360100F0360100F03601003E
:10370000F8360100F83601000037010000370100EB
:103710000837010008370100103701001037010099
:103720001837010018370100203701002037010049
:1037300028370100283701003037010030370100F9
:1037400038370100383701004037010040370100A9
:103750004837010048370100503701005037010059
:103760005837010058370100603701006037010009
:1037700068370100683701007037010070370100B9
:103780007837010078370100803701008037010069
:103790008837010088370100903701009037010019
:1037A0009837010098370100A0370100A0370100C9
:1037B000A8370100A8370100B0370100B037010079
:1037C000B8370100B8370100C0370100C037010029
:1037D000C8370100C8370100D0370100D0370100D9
:1037E000D8370100D8370100E0370100E037010089
:1037F000E8370100E8370100F0370100F037010039
:10380000F8370100F83701000038010000380100E6
:103810000838010008380100103801001038010094
:103820001838010018380100203801002038010044
:1038300028380100283801003038010030380100F4
:1038400038380100383801004038010040380100A4
:103850004838010048380100503801005038010054
:103860005838010058380100603801006038010004
:1038700068380100683801007038010070380100B4
:103880007838010078380100803801008038010064
:103890008838010088380100903801009038010014
:1038A0009838010098380100A0380100A0380100C4
:1038B000A8380100A8380100B0380100B038010074
:1038C000B8380100B8380100C0380100C038010024
:1038D000C8380100C8380100D0380100D0380100D4
:1038E000D8380100D8380100E0380100E038010084
:1038F000E8380100E8380100F0380100F038010034
:10390000F8380100F83801000039010000390100E1
:10391000083901000839010010390100103901008F
:10392000183901001839010020390100203901003F
:1039300028390100283901003039010030390100EF
:10394000383901003839010040390100403901009F
:10395000483901004839010050390100503901004F
:1039600058390100583901006039010060390100FF
:1039700068390100683901007039010070390100AF
:10398000783901007839010080390100803901005F
:10399000883901008839010090390100903901000F
:1039A0009839010098390100A0390100A0390100BF
:0839B000A8390100A83901004B
:1039B8000000000090340100FFFFFFFF000002003C
:04000003100000E207
:00000001FF
